{
  "_format": "hh-sol-artifact-1",
  "contractName": "SecretMessage",
  "sourceName": "contracts/SecretMessage.sol",
  "abi": [
    {
      "inputs": [],
      "stateMutability": "payable",
      "type": "constructor"
    },
    {
      "anonymous": false,
      "inputs": [
        {
          "indexed": true,
          "internalType": "address",
          "name": "from",
          "type": "address"
        },
        {
          "indexed": false,
          "internalType": "uint256",
          "name": "timestamp",
          "type": "uint256"
        },
        {
          "indexed": false,
          "internalType": "string",
          "name": "message",
          "type": "string"
        }
      ],
      "name": "NewMessage",
      "type": "event"
    },
    {
      "inputs": [],
      "name": "getAllMessages",
      "outputs": [
        {
          "components": [
            {
              "internalType": "address",
              "name": "sender",
              "type": "address"
            },
            {
              "internalType": "string",
              "name": "message",
              "type": "string"
            },
            {
              "internalType": "uint256",
              "name": "timestamp",
              "type": "uint256"
            }
          ],
          "internalType": "struct SecretMessage.Messages[]",
          "name": "",
          "type": "tuple[]"
        }
      ],
      "stateMutability": "view",
      "type": "function"
    },
    {
      "inputs": [
        {
          "internalType": "address",
          "name": "",
          "type": "address"
        }
      ],
      "name": "lastMessageAt",
      "outputs": [
        {
          "internalType": "uint256",
          "name": "",
          "type": "uint256"
        }
      ],
      "stateMutability": "view",
      "type": "function"
    },
    {
      "inputs": [
        {
          "internalType": "string",
          "name": "_secretMessage",
          "type": "string"
        }
      ],
      "name": "sendMessage",
      "outputs": [],
      "stateMutability": "nonpayable",
      "type": "function"
    }
  ],
  "bytecode": "0x60806040526064424462000014919062000160565b620000209190620001ca565b6000819055506200005560405180606001604052806030815260200162001438603091396200005b60201b620005751760201c565b620002c0565b620000fb816040516024016200007291906200029c565b6040516020818303038152906040527f41304fac000000000000000000000000000000000000000000000000000000007bffffffffffffffffffffffffffffffffffffffffffffffffffffffff19166020820180517bffffffffffffffffffffffffffffffffffffffffffffffffffffffff8381831617835250505050620000fe60201b60201c565b50565b60008151905060006a636f6e736f6c652e6c6f679050602083016000808483855afa5050505050565b6000819050919050565b7f4e487b7100000000000000000000000000000000000000000000000000000000600052601160045260246000fd5b60006200016d8262000127565b91506200017a8362000127565b925082820190508082111562000195576200019462000131565b5b92915050565b7f4e487b7100000000000000000000000000000000000000000000000000000000600052601260045260246000fd5b6000620001d78262000127565b9150620001e48362000127565b925082620001f757620001f66200019b565b5b828206905092915050565b600081519050919050565b600082825260208201905092915050565b60005b838110156200023e57808201518184015260208101905062000221565b60008484015250505050565b6000601f19601f8301169050919050565b6000620002688262000202565b6200027481856200020d565b9350620002868185602086016200021e565b62000291816200024a565b840191505092915050565b60006020820190508181036000830152620002b881846200025b565b905092915050565b61116880620002d06000396000f3fe608060405234801561001057600080fd5b50600436106100415760003560e01c806303cc7b2114610046578063469c81101461007657806353f5e38014610092575b600080fd5b610060600480360381019061005b9190610745565b6100b0565b60405161006d919061078b565b60405180910390f35b610090600480360381019061008b91906108ec565b6100c8565b005b61009a610424565b6040516100a79190610ae4565b60405180910390f35b60026020528060005260406000206000915090505481565b42603c600260003373ffffffffffffffffffffffffffffffffffffffff1673ffffffffffffffffffffffffffffffffffffffff168152602001908152602001600020546101159190610b35565b10610155576040517f08c379a000000000000000000000000000000000000000000000000000000000815260040161014c90610bc6565b60405180910390fd5b600160405180606001604052803373ffffffffffffffffffffffffffffffffffffffff16815260200183815260200142815250908060018154018082558091505060019003906000526020600020906003020160009091909190915060008201518160000160006101000a81548173ffffffffffffffffffffffffffffffffffffffff021916908373ffffffffffffffffffffffffffffffffffffffff160217905550602082015181600101908161020d9190610df2565b506040820151816002015550506102596040518060400160405280601181526020017f6d6573736165672073656e742062793a200000000000000000000000000000008152503361060e565b42600260003373ffffffffffffffffffffffffffffffffffffffff1673ffffffffffffffffffffffffffffffffffffffff168152602001908152602001600020819055503373ffffffffffffffffffffffffffffffffffffffff167f0ff94fec3112de81726d79117e091c7c9d47da8a38c73e8cec7ee350a61898a642836040516102e5929190610efd565b60405180910390a2606460005442446102fe9190610b35565b6103089190610b35565b6103129190610f5c565b6000819055506032600054101561042157600066038d7ea4c68000905047811115610372576040517f08c379a000000000000000000000000000000000000000000000000000000000815260040161036990610fd9565b60405180910390fd5b60003373ffffffffffffffffffffffffffffffffffffffff16826040516103989061102a565b60006040518083038185875af1925050503d80600081146103d5576040519150601f19603f3d011682016040523d82523d6000602084013e6103da565b606091505b505090508061041e576040517f08c379a0000000000000000000000000000000000000000000000000000000008152600401610415906110b1565b60405180910390fd5b50505b50565b60606001805480602002602001604051908101604052809291908181526020016000905b8282101561056c57838290600052602060002090600302016040518060600160405290816000820160009054906101000a900473ffffffffffffffffffffffffffffffffffffffff1673ffffffffffffffffffffffffffffffffffffffff1673ffffffffffffffffffffffffffffffffffffffff1681526020016001820180546104d190610c15565b80601f01602080910402602001604051908101604052809291908181526020018280546104fd90610c15565b801561054a5780601f1061051f5761010080835404028352916020019161054a565b820191906000526020600020905b81548152906001019060200180831161052d57829003601f168201915b5050505050815260200160028201548152505081526020019060010190610448565b50505050905090565b61060b8160405160240161058991906110d1565b6040516020818303038152906040527f41304fac000000000000000000000000000000000000000000000000000000007bffffffffffffffffffffffffffffffffffffffffffffffffffffffff19166020820180517bffffffffffffffffffffffffffffffffffffffffffffffffffffffff83818316178352505050506106aa565b50565b6106a68282604051602401610624929190611102565b6040516020818303038152906040527f319af333000000000000000000000000000000000000000000000000000000007bffffffffffffffffffffffffffffffffffffffffffffffffffffffff19166020820180517bffffffffffffffffffffffffffffffffffffffffffffffffffffffff83818316178352505050506106aa565b5050565b60008151905060006a636f6e736f6c652e6c6f679050602083016000808483855afa5050505050565b6000604051905090565b600080fd5b600080fd5b600073ffffffffffffffffffffffffffffffffffffffff82169050919050565b6000610712826106e7565b9050919050565b61072281610707565b811461072d57600080fd5b50565b60008135905061073f81610719565b92915050565b60006020828403121561075b5761075a6106dd565b5b600061076984828501610730565b91505092915050565b6000819050919050565b61078581610772565b82525050565b60006020820190506107a0600083018461077c565b92915050565b600080fd5b600080fd5b6000601f19601f8301169050919050565b7f4e487b7100000000000000000000000000000000000000000000000000000000600052604160045260246000fd5b6107f9826107b0565b810181811067ffffffffffffffff82111715610818576108176107c1565b5b80604052505050565b600061082b6106d3565b905061083782826107f0565b919050565b600067ffffffffffffffff821115610857576108566107c1565b5b610860826107b0565b9050602081019050919050565b82818337600083830152505050565b600061088f61088a8461083c565b610821565b9050828152602081018484840111156108ab576108aa6107ab565b5b6108b684828561086d565b509392505050565b600082601f8301126108d3576108d26107a6565b5b81356108e384826020860161087c565b91505092915050565b600060208284031215610902576109016106dd565b5b600082013567ffffffffffffffff8111156109205761091f6106e2565b5b61092c848285016108be565b91505092915050565b600081519050919050565b600082825260208201905092915050565b6000819050602082019050919050565b61096a81610707565b82525050565b600081519050919050565b600082825260208201905092915050565b60005b838110156109aa57808201518184015260208101905061098f565b60008484015250505050565b60006109c182610970565b6109cb818561097b565b93506109db81856020860161098c565b6109e4816107b0565b840191505092915050565b6109f881610772565b82525050565b6000606083016000830151610a166000860182610961565b5060208301518482036020860152610a2e82826109b6565b9150506040830151610a4360408601826109ef565b508091505092915050565b6000610a5a83836109fe565b905092915050565b6000602082019050919050565b6000610a7a82610935565b610a848185610940565b935083602082028501610a9685610951565b8060005b85811015610ad25784840389528151610ab38582610a4e565b9450610abe83610a62565b925060208a01995050600181019050610a9a565b50829750879550505050505092915050565b60006020820190508181036000830152610afe8184610a6f565b905092915050565b7f4e487b7100000000000000000000000000000000000000000000000000000000600052601160045260246000fd5b6000610b4082610772565b9150610b4b83610772565b9250828201905080821115610b6357610b62610b06565b5b92915050565b600082825260208201905092915050565b7f57616974206174206c65617374203135206d696e757465730000000000000000600082015250565b6000610bb0601883610b69565b9150610bbb82610b7a565b602082019050919050565b60006020820190508181036000830152610bdf81610ba3565b9050919050565b7f4e487b7100000000000000000000000000000000000000000000000000000000600052602260045260246000fd5b60006002820490506001821680610c2d57607f821691505b602082108103610c4057610c3f610be6565b5b50919050565b60008190508160005260206000209050919050565b60006020601f8301049050919050565b600082821b905092915050565b600060088302610ca87fffffffffffffffffffffffffffffffffffffffffffffffffffffffffffffffff82610c6b565b610cb28683610c6b565b95508019841693508086168417925050509392505050565b6000819050919050565b6000610cef610cea610ce584610772565b610cca565b610772565b9050919050565b6000819050919050565b610d0983610cd4565b610d1d610d1582610cf6565b848454610c78565b825550505050565b600090565b610d32610d25565b610d3d818484610d00565b505050565b5b81811015610d6157610d56600082610d2a565b600181019050610d43565b5050565b601f821115610da657610d7781610c46565b610d8084610c5b565b81016020851015610d8f578190505b610da3610d9b85610c5b565b830182610d42565b50505b505050565b600082821c905092915050565b6000610dc960001984600802610dab565b1980831691505092915050565b6000610de28383610db8565b9150826002028217905092915050565b610dfb82610970565b67ffffffffffffffff811115610e1457610e136107c1565b5b610e1e8254610c15565b610e29828285610d65565b600060209050601f831160018114610e5c5760008415610e4a578287015190505b610e548582610dd6565b865550610ebc565b601f198416610e6a86610c46565b60005b82811015610e9257848901518255600182019150602085019450602081019050610e6d565b86831015610eaf5784890151610eab601f891682610db8565b8355505b6001600288020188555050505b505050505050565b6000610ecf82610970565b610ed98185610b69565b9350610ee981856020860161098c565b610ef2816107b0565b840191505092915050565b6000604082019050610f12600083018561077c565b8181036020830152610f248184610ec4565b90509392505050565b7f4e487b7100000000000000000000000000000000000000000000000000000000600052601260045260246000fd5b6000610f6782610772565b9150610f7283610772565b925082610f8257610f81610f2d565b5b828206905092915050565b7f436f6e747261637420686173206e6f7420656e6f756768206574680000000000600082015250565b6000610fc3601b83610b69565b9150610fce82610f8d565b602082019050919050565b60006020820190508181036000830152610ff281610fb6565b9050919050565b600081905092915050565b50565b6000611014600083610ff9565b915061101f82611004565b600082019050919050565b600061103582611007565b9150819050919050565b7f4661696c656420746f207769746864726177206d6f6e65792066726f6d20746860008201527f6520636f6e747261637400000000000000000000000000000000000000000000602082015250565b600061109b602a83610b69565b91506110a68261103f565b604082019050919050565b600060208201905081810360008301526110ca8161108e565b9050919050565b600060208201905081810360008301526110eb8184610ec4565b905092915050565b6110fc81610707565b82525050565b6000604082019050818103600083015261111c8185610ec4565b905061112b60208301846110f3565b939250505056fea2646970667358221220dde182785b84ca61aca632bfb8dd9b75b8ed7d1a497a0728234124c01b164e1b64736f6c6343000811003354686973206973206d7920666972737420636f6e736f6c65206c6f672066726f6d20736d61727420636f6e7472616374",
  "linkReferences": {},
  "deployedLinkReferences": {}
}